S00F0000534420636172642E73726563C4
S11300000C946F000C948C000C948C000C948C0059
S11300100C948C000C948C000C948C000C948C002C
S11300200C948C000C948C000C948C000C948C001C
S11300300C948C000C948C000C948C000C948C000C
S11300400C948C000C948C000C948C000C948C00FC
S11300500C948C0063617264206E6F7420696E6905
S11300607469616C697A6564006361726420696EA5
S1130070697469616C697A6564002A2A2A2A2A2AC1
S11300802A2A2A2A2A2A2A2A2A2A2A2A2A2A2A2ACC
S11300902A2A2A2A2A2A2A2A2A2A2A2A2A005541A4
S11300A0525420436F6D6D756E69636174696F6E30
S11300B0204F4B21212121212E002A2A2A2A2A2AB3
S11300C02A2A2A2A2A2A2A2A2A2A2A2A2A2A2A2A8C
S11300D02A2A2A2A2A2A2A2A2A2A2A2A2A001124C5
S11300E01FBECFE5D8E0DEBFCDBF11E0A0E6B0E093
S11300F0ECEEF9E002C005900D92A030B107D9F7FB
S113010023E0A0E0B1E001C01D92AE30B207E1F7F8
S11301100E94F1010C94F4040C9400001BBA1ABA66
S113012080E488BB8FEB87BB15BA8FEF84BB12BA10
S11301308EEF81BB089587E689B910BC88E18AB93E
S113014086E880BD0895F8940E948E000E948E0374
S11301500E949B0015BE1BBE19BE08950F931F93EA
S1130160AC01609166007091670080E090E001E06E
S113017010E020E030E00E94B0028091660090918F
S11301806700019690936700809366002FEF80E7E5
S113019092E0215080409040E1F700C0000080913F
S11301A066009091670090930903809308031F9160
S11301B00F910895CF92DF92EF92FF920F931F93C6
S11301C0CF93DF9380E092E00E94C7037C0188E62E
S11301D090E00E94B8038701C0E0D0E00E949C0335
S11301E06801F80181938F010E94A103F6019081B7
S11301F09E3729F02196C115F2E0DF0779F7CE0D7D
S1130200DF1D1882C7010E94AE00C7010E945C0472
S1130210DF91CF911F910F91FF90EF90DF90CF90DE
S11302200895EF92FF920F931F93CF93DF9380E093
S113023092E00E94C7037C01809108039091090316
S11302400397D8F0C2E0D0E0BE0180E090E001E086
S113025010E020E030E0A7010E944E038AE890E01D
S11302600E94B803C7010E94B80321968091080335
S113027090910903C817D90738F3C7010E945C0499
S1130280DF91CF911F910F91FF90EF900895BF924E
S1130290CF92DF92EF92FF920F931F93CF93DF934E
S11302A08DE890E00E94B8030E949C03C82F0E942E
S11302B09C039C2F990F9056692F660F660F690F48
S11302C08053B62EB82A87EA90E00E94B80380E0F3
S11302D092E00E94C7037C0188E690E00E94B80384
S11302E08701C0E0D0E00E949C036801F80181937B
S11302F08F010E94A103F60190819E3729F0219677
S1130300C115F2E0DF0779F7CE0DDF1D18826B2DE2
S113031070E080E090E001E010E020E030E0A70130
S11303200E94B002C7010E945C04DF91CF911F912B
S11303300F91FF90EF90DF90CF90BF900895EF92D0
S1130340FF920F931F93CF938DE890E00E94B80320
S11303500E949C03C82F0E949C039C2F990F9056C7
S1130360692F660F660F690F8053C62FC82B80E074
S113037092E00E94C7037C016C2F70E080E090E063
S113038001E010E020E030E0A7010E944E038AE87B
S113039090E00E94B803C7010E94B803CF911F9157
S11303A00F91FF90EF90089588EB90E00E94B803BE
S11303B00E949C03823361F018F4813331F0F4CF4E
S11303C0833349F0843351F0EFCF0E94DA00ECCF4D
S11303D00E941101E9CF0E944701E6CF0E949F01CC
S11303E0E3CF2FEF81EE94E0215080409040E1F77D
S11303F000C000000E94A3008DE00E94A1038AE0D7
S11304000E94A1038DE00E94A1038AE00E94A1033F
S11304108AEB90E00E94A5038DE00E94A1038AE08C
S11304200E94A1038EE990E00E94A5038DE00E9442
S1130430A1038AE00E94A1038AE790E00E94A50339
S11304408DE00E94A1038AE00E94A1030E945F0242
S1130450882329F089E690E00E94A50304C084E57E
S113046090E00E94A5030E94D401EF92FF920F93A3
S11304701F93CF93DF93E82ED42F152F062FF72E3B
S1130480C22FC4988FEF0E9491038E2D80640E9426
S113049091038F2D0E949103802F0E949103812F3D
S11304A00E9491038D2F0E9491038C2F0E9491032F
S11304B0DF91CF911F910F91FF90EF900895CF930B
S11304C0DF93C49AC59ACAE08FEF0E949103C1508A
S11304D0D9F7C49825E940E050E0BA0180E00E94D1
S11304E035020E949603D82FC1E00EC00E949603E5
S11304F0D82FCF5FC23041F425E940E050E0BA0183
S113050080E00E943502C0E0D13081F7D0E02FEFC7
S113051040E050E0BA0187E70E9435020E9496034A
S11305200E949603CF5F813011F0CA30C8F30E9455
S113053096032FEF40E050E060E070E489E60E940B
S113054035020E949603CD2F0E949603CF5F882325
S113055019F0CA30C9F7DBCF81E0DF91CF9108955C
S11305604F925F926F927F928F929F92AF92BF92BF
S1130570CF92DF92EF92FF920F931F93CF93DF936B
S11305807A0128013901AB01BC01032E39E0440F83
S1130590551F661F771F3A95D1F7302D2FEF89E14C
S11305A00E9435020E9496038111FCCF8FEF0E94B6
S11305B091038FEF0E9491038CEF0E9491034114E9
S11305C0510461047104E9F424C00E9491037E0182
S11305D0CC15DD0521F089918111F7CF03C0888105
S11305E0811104C080E00E94910313C0FFEF8F1AB1
S11305F09F0AAF0ABF0A84149504A604B70421F421
S113060008C0812C912C5401F701808181112DC0E7
S1130610E9CF8FEF0E9491038FEF0E9491030E9414
S11306209603982F9F71953031F00E949603982F6E
S11306309F719530D1F78F3F21F00E9496038F3F31
S1130640E1F78FEF0E9491038FEF0E9491038DEFEA
S11306500E9491030E9496030E9496038F3F69F0C3
S11306600E9496038F3FE1F708C00E949103E701BF
S113067021966701FEEFDF1AAECFDF91CF911F9174
S11306800F91FF90EF90DF90CF90BF90AF909F902D
S11306908F907F906F905F904F9008950F931F936A
S11306A0CF93DF938A01AB01BC01032E39E0440FE1
S11306B0551F661F771F3A95D1F7302D2FEF82E132
S11306C00E9435020E9496038E3FE1F7E8011E5F07
S11306D00E9496038993882319F0C017D107C1F7A4
S11306E08FEF0E9491038FEF0E9491032FEF40E060
S11306F050E0BA018CE00E9435020E9496038823E0
S113070021F00E9496038111FCCF0E9496038F3F33
S1130710E1F7DF91CF911F910F91089583E58DB992
S113072008958FB9779BFECF8FB108958FEF8FB95E
S1130730779BFECF8FB108955F9BFECF8BB18CB1B9
S113074008955D9BFECF8CB90895CF93DF93EC01A0
S1130750FC018491882349F0FE01219684910E9432
S1130760A103FE0184918111F7CFDF91CF91089508
S1130770CF93DF93EC018881882331F021960E9486
S1130780A10389918111FBCFDF91CF910895CF937C
S1130790DF938230910510F482E090E0E0910C0345
S11307A0F0910D0320E030E0C0E0D0E0309711F18B
S11307B04081518148175907C0F04817590761F41F
S11307C082819381209719F09B838A832BC0909315
S11307D00D0380930C0326C02115310519F042172F
S11307E0530718F49A01BE01DF01EF010280F3817F
S11307F0E02DDCCF2115310509F1281B390B2430FC
S1130800310590F412968D919C91139761157105A1
S113081021F0FB019383828304C090930D038093A2
S11308200C03FD01329644C0FD01E20FF31F8193D6
S11308309193225031092D933C933AC020910A039D
S113084030910B03232B41F420916200309163001B
S113085030930B0320930A032091600030916100D0
S11308602115310541F42DB73EB7409164005091F4
S11308706500241B350BE0910A03F0910B03E2178A
S1130880F307A0F42E1B3F0B2817390778F0AC01AF
S11308904E5F5F4F2417350748F04E0F5F1F50938C
S11308A00B0340930A038193919302C0E0E0F0E0CC
S11308B0CF01DF91CF9108950F931F93CF93DF93CF
S11308C0009709F48CC0FC013297138212820091C4
S11308D00C0310910D030115110581F42081318160
S11308E0820F931F20910A0330910B0328173907B5
S11308F079F5F0930B03E0930A0371C0D80140E04B
S113090050E0AE17BF0750F412962D913C91139707
S1130910AD012115310509F1D901F3CF9D01DA01AA
S11309203383228360817181860F971F8217930717
S113093069F4EC0128813981260F371F2E5F3F4F60
S1130940318320838A819B8193838283452B29F47D
S1130950F0930D03E0930C0342C01396FC93EE93C3
S11309601297ED01499159919E01240F351FE21709
S1130970F30771F480819181840F951F029611967B
S11309809C938E938281938113969C938E9312975A
S1130990E0E0F0E0D80112968D919C9113970097B6
S11309A019F0F8018C01F6CF8D919C9198012E5F7E
S11309B03F4F820F931F20910A0330910B03281796
S11309C0390769F4309729F410920D0310920C033F
S11309D002C01382128210930B0300930A03DF9167
S10F09E0CF911F910F910895F894FFCF60
S11309EC00000E03200002000D0A20656E7465726F
S11309FC2074686520737472696E6720656E64690F
S1130A0C6E672077697468207E200D0A00456E7429
S1130A1C657220736563746F72206E756D62657296
S1130A2C2030302D393900656E7465722074686518
S1130A3C20737472696E6700456E746572207468F5
S1130A4C65206F7065726174696F6E0D0A312E5773
S1130A5C72697465200D0A322E52656164200D0A88
S1130A6C332E577269746520736563746F72200D2D
S1130A7C0A342E5265616420536563746F720000EE
S9030000FC
